:020000040000FA
:0600000055EF08F01200AC
:020006001200E6
:06000800CCEF03F0120032
:02000E000100EF
:0C001000E6100000800000003F0000002F
:04001C00D9CFE6FF53
:10002000E1CFD9FF020EE1260001120EC96F0A0EC0
:10003000CA6F000ECB6F0001936B720ED36EC26A53
:100040000D0EC16EC06AC30E926E010E936EC50E88
:10005000946E89688A68FD0E8B6E000EE66EE66A05
:100060003BEC07F0E552E55200018E6F8F6B170EE7
:10007000D8808E55000E8F550DE2120E8E6F8F6B4D
:100080008EC0E6FF000EE66EE66A4AEC07F0E55227
:10009000E552E5520D0EE66E040EE66ED90EE66EE2
:1000A00004EC07F0E552E552E552870EE66E18ECD7
:1000B00008F0E55271EC08F06CEC08F0000901E082
:1000C000FBD763EC08F0F3CF8CF0F4CF8DF0560E35
:1000D0000D6E010E0E6E8CC008F08DC009F066EC3E
:1000E00005F008C08CF009C08DF08F0EE66E18EC9C
:1000F00008F0E55271EC08F06CEC08F0000901E042
:10010000FBD763EC08F0F3CF14F0F4CF15F0560EE4
:100110000D6E010E0E6E14C008F015C009F066ECED
:1001200005F008C014F009C015F0030E1502F3CF56
:1001300015F01402F3CF14F0F450152614500001FA
:100140008C2715508D238C2B000E8D23650EE66EAB
:10015000A8EC07F0E552000EE66EE66AC9EC07F07F
:10016000E552E552B196850EE66E00EC08F0E552D8
:10017000BC0EE66EE5EC07F0E552CC6AF288F18C35
:10018000D09E9F849D849D82F28CF28E0001B4519A
:100190004DE1400ED880BB55000EBC5526E3E66A03
:1001A000BBC0E6FFBCC0E6FFBBEC06F0E552E55283
:1001B000E5520001CC6F010EE66EBBC0E6FFBCC08D
:1001C000E6FFBBEC06F0E552E552E5520001CD6FCB
:1001D000020EE66EBBC0E6FFBCC0E6FFBBEC06F05D
:1001E000E552E552E5520001CE6F0001500EBB5DB5
:1001F000000EBC591AE3010EB46F80AE08D00001A6
:10020000120EC96F0A0ECA6F000ECB6F07D0000125
:10021000520EC96F0A0ECA6F000ECB6F0001020E9C
:100220009C6FDC0E906F050E916FABD2ADC0AFF03E
:10023000AEC0B0F0AF51B0112EE0AFC018F0B0C0FA
:1002400019F01A6A1B6A86C014F087C015F0166A86
:10025000176A050ED8901436153616361736E80686
:10026000F9E114C006F015C007F016C008F017C079
:1002700009F018C00BF019C00CF01AC00DF01BC02B
:100280000EF08CEC05F006C0A7F007C0A8F008C07F
:10029000A9F009C0AAF0A5C018F0A6C019F01A6A02
:1002A0001B6A80C014F081C015F082C016F083C0B4
:1002B00017F0050ED8901436153616361736E806A0
:1002C000F9E114C006F015C007F016C008F017C019
:1002D00009F018C00BF019C00CF01AC00DF01BC0CB
:1002E0000EF08CEC05F006C0A1F007C0A2F008C02B
:1002F000A3F009C0A4F00001B3051BE184C014F011
:1003000085C015F0166A176A15AE02D01668176810
:10031000AA511718E8AE02D0173408D01450A75DC0
:100320001550A8591650A9591750AA5902E2B36B93
:100330001DD0B3511BE188C014F089C015F0166AB6
:10034000176A15AE02D0166817681750AA19E8AEDA
:1003500002D0AA3508D0A751145CA8511558A9514C
:100360001658AA51175802E2010EB36FB3514FE16C
:10037000B751B8110AE0A7C096F0A8C097F0A9C07D
:1003800098F0AAC099F0B76BB86B960EE96E000EA4
:10039000EA6EEE50A75D146EEE50A859156EEE5041
:1003A000A959166EEE50AA59176ED8901750000A28
:1003B00008E6000E145C140E1558000E1658000EB8
:1003C000175824E2960EE96E000EEA6EEE50A75D15
:1003D000066EEE50A859076EEE50A959086EEE5001
:1003E000AA59096E200E0B6E0C6A0D6A0E6A8CEC0F
:1003F00005F0000196510624966F97510720976FDC
:1004000098510820986F99510920996F55D0B305DC
:100410004FE1B751B8110AE0A1C096F0A2C097F021
:10042000A3C098F0A4C099F0B76BB86B960EE96EB4
:10043000000EEA6EEE50A15D146EEE50A259156EDC
:10044000EE50A359166EEE50A459176ED89017505F
:10045000000A08E6000E145C140E1558000E16581B
:10046000000E175824E2960EE96E000EEA6EEE506A
:10047000A15D066EEE50A259076EEE50A359086EAC
:10048000EE50A459096E200E0B6E0C6A0D6A0E6AAE
:100490008CEC05F0000196510624966F97510720C9
:1004A000976F98510820986F99510920996F04D03F
:1004B000966B976B986B996B96C006F097C007F098
:1004C00098C008F099C009F0200E0B6E0C6A0D6AF6
:1004D0000E6A8CEC05F006C094F007C095F094C04D
:1004E00008F095C009F08CC00DF08DC00EF066ECE0
:1004F00005F008C0DEFF09C0DDFFDECF14F0DDCF60
:1005000015F0180E145C000E155860E2DECF14F0E2
:10051000DDCF15F0030E0D6E0E6A14C008F015C085
:1005200009F02FEC08F008C014F009C015F0010E16
:1005300014C0E7FFE75204E0E846FE0BE706FCE1E3
:10054000FF0F0001CC6FDECF14F0DDCF15F0010EF0
:100550001426000E1522030E0D6E0E6A14C008F04C
:1005600015C009F02FEC08F008C014F009C015F010
:10057000010E14C0E7FFE75204E0E846FE0BE70671
:10058000FCE1FF0F0001CD6FDECF14F0DDCF15F0E1
:10059000020E1426000E1522030E0D6E0E6A14C0F4
:1005A00008F015C009F02FEC08F008C014F009C0DD
:1005B00015F0010E14C0E7FFE75204E0E846FE0B19
:1005C000E706FCE1FF0F0001CE6F04D00001CC690B
:1005D000CD69CE69DECF14F0DDCF15F000011450E7
:1005E0008E5D15508F5902E2020E9C6F9051911151
:1005F00001E177D08EC014F08FC015F0030E0D6EA0
:100600000E6A14C008F015C009F02FEC08F004C001
:1006100014F005C015F0020E141801E1155044E065
:10062000010E141801E1155022E0145001E115509B
:1006300001E057D08EC014F08FC015F0030E0D6E80
:100640000E6A14C008F015C009F02FEC08F008C0BD
:1006500014F009C015F0010E14C0E7FFE75204E0E2
:10066000E846FE0BE706FCE10001CE133AD08EC04F
:1006700014F08FC015F0030E0D6E0E6A14C008F052
:1006800015C009F02FEC08F008C014F009C015F0EF
:10069000010E14C0E7FFE75204E0E846FE0BE70650
:1006A000FCE10001CD131DD08EC014F08FC015F0F9
:1006B000030E0D6E0E6A14C008F015C009F02FEC81
:1006C00008F008C014F009C015F0010E14C0E7FFCF
:1006D000E75204E0E846FE0BE706FCE10001CC131C
:1006E00000D08250800B19E10001BD5116E0170EB9
:1006F0008E1901E18F5111E08E2B000E8F23DC0E3D
:10070000906F050E916F8EC0E6FF000EE66EE66AF2
:100710004AEC07F0E552E552E5528250400B17E1F2
:100720000001BE5114E08E518F1111E08E07000EB2
:100730008F5BDC0E906F050E916F8EC0E6FF000E92
:10074000E66EE66A4AEC07F0E552E552E552825061
:10075000800B01E0010E0001BD6F8250400B01E0F3
:10076000010EBE6FB2519519E8AE02D0953504D096
:100770009451B15D9551B25904E294C0B1F095C065
:10078000B2F004D5020EE15C02E2E16AE552E16EEC
:10079000E552E7CFD9FF1200DACFE4FFE2CFDAFF6C
:1007A000E9CFE4FFEACFE4FFF6CFE4FFF7CFE4FFC1
:1007B000F8CFE4FFF5CFE4FFF3CFE4FFF4CFE4FF9D
:1007C000FACFE4FFFBCFE4FF00EE00F0140EE804E4
:1007D00003E3EECFE4FFFBD700EE14F00C0EE804C9
:1007E00003E3EECFE4FFFBD7E6529EA41CD09E9419
:1007F0009DC09FF09EC0A0F085EC07F0F3CF9DF068
:10080000F4CF9EF000019F519D5DA56FA0519E59B0
:10081000A66FB507000EB65BB551B61104E18B7635
:10082000010EB56FB66BF2A210D0F292ABC0ADF074
:10083000ACC0AEF00001AB6BAC6B020EB35D05E17A
:100840008AC0ADF08BC0AEF0B36B9EB09E909EA2FE
:10085000B8D09E920001AB2B000EAC238A51AB5D49
:100860008B51AC5908E3AB6BAC6BA76BA86BA96B56
:10087000AA6B020EB36FB92B000EBA23320ED880CA
:10088000B955000EBA5505E2BB2B000EBC23B96B5F
:10089000BA6B000EE76E9C19E8AE02D09C3503D00F
:1008A000E750D8809C5518E29A2B000E9B239B356D
:1008B00004E29A517808000E9B5504E29A6B9B6BF8
:1008C0009C070AD09B3504E29A513C08000E9B55C8
:1008D00002E28B9201D08B829051911103E090073C
:1008E000000E915B922B920512E180AE02D08A92AB
:1008F00001D08B9ACCC0E6FF07D0CBC0FBFFCAC0AB
:10090000FAFF0001C951F96EF8DFE5525AD0050E21
:10091000D8809355925D0AE180AE02D08A8201D0E0
:100920008B8A0A0EE66E75D8E5524BD0060E925DA4
:100930000EE18B98CDC0E6FF07D0CBC0FBFFCAC04D
:10094000FAFF0001C951F96EF8DFE5523AD00A0EFC
:10095000D8809355925D06E18B880A0EE66E59D8D1
:10096000E5522FD00B0E925D12E180AE02D08B9A31
:1009700001D08A92CEC0E6FF07D0CBC0FBFFCAC031
:10098000FAFF0001C951F96EF8DFE5521AD00F0ED7
:10099000D8809355925D0AE180AE02D08B8A01D057
:1009A0008A820A0EE66E35D8E5520BD00F0EE76E3E
:1009B0009219E8AE02D0E73402D0E750925D01E32D
:1009C000926BE55200EE1FF00C0EE80403E3E5CF56
:1009D000EDFFFBD700EE13F0140EE80403E3E5CFC0
:1009E000EDFFFBD7E5CFFBFFE5CFFAFFE5CFF4FF47
:1009F000E5CFF3FFE5CFF5FFE5CFF8FFE5CFF7FF54
:100A0000E5CFF6FFE5CFEAFFE5CFE9FFE5CFDAFF77
:100A10001100D9CFE6FFE1CFD9FF3C0E89128A122F
:100A2000FE0EDB500A0811E0FE0EDBB08994DBB24B
:100A30008A94DBB48A96DBB68A98DBB88A9ADBBAEA
:100A4000899ADBBC8998DBBE8996E552E7CFD9FF4E
:100A50001200D9CFE6FFE1CFD9FF3C0E89128A12EE
:100A6000FE0EDB500A0811E0FE0EDBB08996DBB209
:100A70008998DBB4899ADBB68A9ADBB88A98DBBAA4
:100A80008A96DBBC8A94DBBE8994E552E7CFD9FF16
:100A90001200D9CFE6FFE1CFD9FF3C0E89128A12AE
:100AA000FE0EDB500A080EE0FE0EDB500F0B040DAD
:100AB000F31C8916FE0EDB50F00BE840E8403F0BBC
:0C0AC000E81C8A16E552E7CFD9FF1200AF
:040ACC00006A0EAE00
:100AD0006FEF05F00D6C0E1EE86A0E22001E09AEC7
:100AE00077EF05F0086C091EE86A0922001E2FEC5A
:100AF00008F009BE87EF05F000AE000C086C091E77
:100B0000E86A0922046C051EE86A0522000C00BE92
:100B10007EEF05F00188FF0C006AE86A0EAE99EFDF
:100B200005F00B6C0C1E0D1E0E1E0C220D220E224B
:100B3000001E09AEA4EF05F0066C071E081E091E74
:100B4000072208220922001E61EC07F009BEBBEF54
:100B500005F000AE000C066C071E081E091EE86AB0
:100B6000072208220922026C031E041E051E03220E
:100B700004220522000C00BEABEF05F00188FF0C3B
:100B800009C013F008C012F007C011F007500C02A2
:100B9000F4CF05F0F3CF04F008500D02F4CF07F0C6
:100BA000F3CF06F00C02F3500526F4500622E86A53
:100BB000072211500D02F3500526F4500622E86A70
:100BC000072209500C02F3500626F4500722095060
:100BD0000D02086AE86A0822F3500726F45008223A
:100BE00011500E02F3500626F4500722096AE86AF3
:100BF0000822092212500E02F3500726F450082250
:100C0000E86A092213500E02F3500826F450092214
:020C1000000CD6
:0E0C1200800001008100010080C0000300C3CB
:100C2000000300C0E0000700E7000700E0F0000F4D
:100C300000FF000F00F0F8001F08FF100F18F0F879
:100C4000181F18FF181F18F8FC183F1CFF381F3C0E
:100C5000F8FC3C3F3CFF3C3F3CFCFE3C7F3EFF7CC5
:100C60003F7EFCFE7E7F7EFF7E7F7EFEFF7EFF7FDF
:100C7000FFFE7FFFFEFFFFFFFFFFFFFFFFFFFFFF06
:100C8000FEFFFEFEFEFEFEFEFEFCFEFCFCFCFCFC8F
:100C9000FCFCF8FCF8F8F8F8F8F8F8F0F8F0F0F0E8
:100CA000F0F0F0F0E0F0E0E0E0E0E0E0E0C0E0C034
:100CB000C0C0C0C0C0C080C08080808080808000F4
:100CC00080000000000000000000000100000100A2
:080CD000000100000100000119
:080CD8000E0EF66E000EF76E21
:100CE000000EF86E00010900F550C46F0900F550C0
:100CF000C56F03E1C46701D03DD00900F550BF6F57
:100D00000900F550C06F0900F550C16F09000900D6
:100D1000F550E96E0900F550EA6E09000900090076
:100D2000F550C26F0900F550C36F09000900F6CFF6
:100D3000C6F0F7CFC7F0F8CFC8F0BFC0F6FFC0C00D
:100D4000F7FFC1C0F8FF0001C25302E1C35307E03F
:100D50000900F550EE6EC207F8E2C307F9D7C6C026
:100D6000F6FFC7C0F7FFC8C0F8FF0001C407000EB8
:060D7000C55BBFD71200B5
:0A0D7600D9CFE6FFE1CFD9FF120E3E
:100D8000176E0C0E186E000E196EFD0EDBCF1AF0EA
:100D9000FE0EDBCF1BF01C6A030E0C6E0D6A0E6A92
:100DA0001AC007F01BC008F01CC009F0C0EC05F029
:100DB00004C01AF005C01BF006C01CF017501A241E
:100DC000146E18501B20156E19501C20166EFC0E48
:100DD000DBCF1DF01E6A1F6A1DAE02D01E681F68A1
:100DE00014501D24F36E15501E20F46E16501F2053
:100DF000F86EF4CFF7FFF3CFF6FF0800F55000D000
:080E0000E552E7CFD9FF120013
:080E0800D9CFE6FFDACFE6FFC7
:100E1000E1CFD9FFE2CFDAFFC26AC06AFC0EDB4045
:100E20007F0B3C0BC26EFC0EDB38F00B300B146EEC
:100E3000FB0EDB500F0B1410C16EFD0EDB50040DCA
:100E4000F350380B156EFD0EDB380F0B070B146ECD
:100E5000FD0EDB50800B14101510C06EFC0EDBAEC7
:100E600003D09E9C9D8CF28CC280E552E5CFDAFFC8
:060E7000E7CFD9FF1200DC
:0A0E7600D9CFE6FFE1CFD9FFFD0E52
:100E8000DB50A96EA66AA680A85000D0E552E7CF35
:100E9000D9FF1200D9CFE6FFE1CFD9FFFD0EDB501D
:100EA000A96EFC0EDB50A86E040EA66E550EA76E42
:100EB000AA0EA76EA682A6B2FED7E552E7CFD9FF4B
:020EC00012001E
:0E0EC200056A046A036A026A200EE76ED89081
:100ED0000636073608360936023603360436053636
:100EE0000B50025C0C5003580D5004580E5005581E
:100EF00009E30B50025E0C50035A0D50045A0E5079
:0A0F0000055A062AE72EE4D7120076
:060F0A00D9CFE6FFDACFAB
:100F1000E6FFE1CFD9FFE2CFDAFFE652E652000169
:100F2000CF919EB4CF81BE50DF6E010EBFCFDBFFED
:100F3000DECF14F0DDCF15F014C0F3FF15C0F4FFC1
:100F4000E552E552E552E5CFDAFFE7CFD9FF1200CF
:100F5000D9CFE6FFDACFE6FFE1CFD9FFE2CFDAFF64
:100F6000FD0EDB507E0BCD6EFD0EDBAC02D0CD8EC8
:100F700001D0CD9ECF6ACE6A9E90DBAE02D09D801E
:100F800001D09D90CD80E552E5CFDAFFE7CFD9FFC4
:020F900012004D
:0E0F9200D9CFE6FFDACFE6FFE1CFD9FFE2CFFD
:100FA000DAFFE652E652FC0EDBCFDEFFDBCFDDFFE1
:100FB000010EDB50CF6EDF50CE6EE552E552E552AA
:0A0FC000E5CFDAFFE7CFD9FF1200FA
:060FCA00D9CFE6FFDACFEB
:100FD000E6FFE1CFD9FFE2CFDAFFFD0EDB50FB0BDE
:100FE000CA6ECC6A9E92FD0EDBAE02D09D8201D00D
:100FF0009D92CA84E552E5CFDAFFE7CFD9FF120010
:10100000D9CFE6FFDACFE6FFE1CFD9FFE2CFDAFFB3
:10101000FD0EDB500F0BBD6EFD0EDBAE02D09E94BD
:101020009D849484E552E5CFDAFFE7CFD9FF120023
:10103000D9CFE6FFDACFE6FFE1CFD9FFE2CFDAFF83
:10104000C30EC214146EFD0EDB407F0B3C0B14105C
:0E105000C26EE552E5CFDAFFE7CFD9FF1200FE
:02105E00056A21
:10106000046A100EE76ED890083609360436053645
:101070000D50045C0E50055805E30D50045E0E50F3
:0A108000055A082AE72EF0D71200E7
:06108A00000EF36E00EE03
:1010900000F0030E01D81200EA6002D0EE6AFCD71D
:0A10A000F350E9601200EE6AFCD77D
:0610AA0012EE00F022EE40
:1010B00000F0F86A019C6CEC06F003EC00F00EEC1A
:0610C00000F0FBD7120056
:0A10C600C450176E166AC3501610CE
:0810D000F36E17C0F4FF1200DB
:0810D800C250020B01E0010E01
:0210E0001200FC
:0410E200C2821200B4
:0A10E60020A10700F401E803D00286
:1010F000E80301001200DC05000000000000000011
:101100000000050000000000000000FFFF000000DC
:1011100000000000000000000002000100010000CB
:051120000000000101C8
:020000040030CA
:0100010008F6
:0100020019E4
:010003001EDE
:0100050000FA
:010006008079
:010008000FE8
:01000900C036
:01000A000FE6
:01000B00E014
:01000C000FE4
:01000D0040B2
:00000001FF
